:020000040800F2
:1000000000000220A9550008C1250008C3250008EA
:10001000C5250008C7250008C92500080000000004
:10002000000000000000000000000000CB250008D8
:10003000CD25000800000000CF250008D1250008CC
:10004000F9550008F9550008F9550008F955000858
:10005000F9550008F9550008F9550008F955000848
:10006000F9550008F9550008F9550008D925000888
:10007000F9550008F9550008F9550008F955000828
:10008000F9550008E9250008F9550008F955000858
:10009000F9550008F9550008F9550008F955000808
:1000A000F9550008F9550008F9550008F9550008F8
:1000B000F9550008F9550008F9550008F925000818
:1000C00009260008F9550008F9550008F9550008F7
:1000D000F9550008F9550008F9550008F9550008C8
:1000E000F9550008F9550008F9550008F9550008B8
:1000F000F9550008F9550008F9550008F9550008A8
:10010000F9550008F9550008F9550008F955000897
:10011000F9550008F9550008F9550008F955000887
:10012000F9550008F9550008F9550008F955000877
:10013000F95500080000000000000000F955000813
:10014000F9550008F9550008F9550008F955000857
:10015000F9550008F9550008F9550008F955000847
:10016000F9550008F9550008F9550008F955000837
:10017000F9550008F9550008F9550008000000007D
:1001800000000000F9550008000000000000000019
:10019000F95500080000000000000000F9550008B3
:1001A000000000000000000000000000F9550008F9
:1001B000F9550008F9550008F9550008F9550008E7
:0401C000F9550008E5
:100200000348044B834202D0034B03B118477047A5
:100210005C0000205C000020000000000548064B48
:100220001B1AD90F01EBA301491002D0034B03B1F4
:10023000184770475C0000205C00002000000000B0
:1002400010B5064C237843B9FFF7DAFF044B13B11E
:100250000448AFF300800123237010BD5C00002030
:1002600000000000FC55000808B5044B1BB1044910
:100270000448AFF30080BDE80840CFE7000000006D
:1002800060000020FC5500080CB410B59CB01EABFB
:10029000029106916FF0004104910791084953F8CB
:1002A000042B0591002402A901931B9400F010F97E
:1002B000029B1C701CB0BDE8104002B0704700BF2C
:1002C0000802FFFF0EB430B59CB06FF000411FABC9
:1002D000049107910A4953F8042B029000240690D8
:1002E000084D0868019302A905951B9400F0F0F8E9
:1002F000029B1C701CB0BDE8304003B0704700BFCB
:10030000000000200802FFFF2DE9F0478F681D461E
:10031000AF420B680C46164636D8B1F90CC01CF437
:10032000906F0ED13D46184631462A4600F0EEFB4E
:10033000A368DF1B2368A7602B4400202360BDE86F
:10034000F0874A69096902EB42025F1A02EBD27236
:100350006B1C52103B44934292BF914699461A46F9
:100360001CF4806F804611D0114600F0F1FA8246ED
:1003700000B321693A4600F09BFCA38923F4906303
:1003800043F08003A38105E02F46CCE700F02AFD6F
:10039000824658B10AEB0703A9EB0707A760C4F828
:1003A00010A0C4F8149023602F46BCE72169404692
:1003B00000F04EFBA3890C2243F04003C8F8002054
:1003C0004FF0FF30A381BAE72DE9F04F936817682B
:1003D00083B09246002B74D04FF0000B8B680A68F4
:1003E00081460C465D4645E0B4F90C3013F4906F3D
:1003F0002CD0D4E90401161A01EB410202EBD272AF
:10040000711C52102944914292BF904688460A4678
:100410005B0539D51146484600F09AFA019000284C
:100420003DD03246216900F043FCA289019B22F4B1
:10043000906242F08002A2819819A8EB0606A6609D
:10044000C4F8148023612060A8462E4632465946DF
:1004500000F05CFBDAF80810A3682268A3EB08033D
:100460003244491BA3602260CAF8081049B3D7E997
:1004700000B5083798461046002DF8D09D421E461C
:10048000B2D2A8462E46E1E70146484600F0AAFC53
:1004900003460028D0D12169484600F0D9FAA38943
:1004A0000C2243F04003C9F800204FF0FF30A38135
:1004B00000220023CAF80820CAF8043003B0BDE8BF
:1004C000F08F00200023CAF8043003B0BDE8F08F9D
:1004D0002DE9F04F1C468B891D069DB0884681464C
:1004E000934603D50B69002B00F0F180002309939C
:1004F00043F22003ADF829309BF800307D4D039482
:100500000126002B73D0DA4603E01AF8013F002BD6
:1005100075D0252BF9D1BAEB0B0473D19AF80020D2
:10052000002A64D000234FF0FF32CDE905230AF101
:10053000010A049307938DF853301A9305E0049A47
:1005400006FA03F31A430492A2465446052214F80D
:10055000011B284600F05CFBA346431B0028EED19C
:10056000049BD80644BF20228DF8532019079AF81F
:10057000001044BF2B228DF853202A2950D1039A12
:1005800011680432002903927CDB07919AF801106C
:100590002E295BD0584C0322204600F039FB38B19D
:1005A000049B001B4022824013430BF1010B049378
:1005B0001BF8011B51488DF82810062200F028FB7B
:1005C000002865D04E4B002B55D003AA00924D4B0E
:1005D000424604A94846AFF3008007467A1C06D07D
:1005E000099B3B4409939BF80030002B8BD1B8F852
:1005F0000C305B067AD409981DB0BDE8F08FBAEBD9
:100600000B04F4D023465A4641464846FFF77CFE89
:100610000130ECD0099B9AF80020234409937FE72E
:10062000A1F13002092A88BFD346B1D8079B00E068
:100630000134217803EB830302EB4303A1F1300281
:10064000092AF5D92E290793A346A3D19BF80110B7
:100650002A2927D1039B9BF802101A6805920433BC
:10066000002A0BF102000393B8BF4FF0FF3383461B
:10067000B8BF05938EE7039B073323F007030833C6
:100680000393ADE7494243F00203079104937DE7EA
:1006900003AA00921B4B424604A9484600F066FCA0
:1006A00007469BE7A1F130020023092A05930BF1CD
:1006B000010B3FF66FAF1BF8011F03EB830302EB47
:1006C0004303A1F13002092AF5D9059362E74021DD
:1006D00000F03EF9C8F80000C8F8100018B1402337
:1006E000C8F8143002E70C23C9F800304FF0FF308F
:1006F00082E700BF3C5700084457000848570008ED
:10070000000000000903000870B50F4B0F4DAB420D
:10071000A3EB050607D0B610002455F8043B0134BE
:100720009847A642F9D804F069FF094D094B5E1BB2
:10073000AB424FEAA60606D0002455F8043B01342C
:100740009847A642F9D870BDA0570008A0570008E6
:10075000A0570008A4570008000000000000000097
:100760000000000000000000000000000000000089
:100770000000000000000000000000000000000079
:1007800030B490F800F020F007016FF0000C10F08A
:10079000070491F820F040F048804FF000046FF01B
:1007A0000700D1E9002391F840F000F1080082FA37
:1007B0004CF2A4FA8CF283FA4CF3A2FA8CF34BBB02
:1007C000D1E9022382FA4CF200F10800A4FA8CF27B
:1007D00083FA4CF3A2FA8CF3E3B9D1E9042382FA49
:1007E0004CF200F10800A4FA8CF283FA4CF3A2FA5E
:1007F0008CF37BB9D1E9062301F1200182FA4CF296
:1008000000F10800A4FA8CF283FA4CF3A2FA8CF3FC
:10081000002BC6D0002A04BF04301A4612BAB2FA1E
:1008200082F200EBD20030BC7047D1E9002304F023
:100830000305C4F100004FEAC50514F0040F91F858
:1008400040F00CFA05F562EA05021CBF63EA0503F5
:1008500062464FF00004AAE7830730B547D0541E24
:10086000002A3ED0CAB2034601E0013C39D303F866
:10087000012B9D07F9D1032C2CD9CDB205EB052511
:100880000F2C05EB054535D9A4F1100222F00F0C11
:1008900003F1100EE6444FEA121C1A46C2E9005555
:1008A000C2E9025510327245F8D10CF1010214F080
:1008B0000C0F03EB021204F00F0C13D0ACF1040385
:1008C00023F003030433134442F8045B9342FBD147
:1008D0000CF003042CB1C9B21C4403F8011BA34261
:1008E000FBD130BD64461346002CF4D1F9E7034632
:1008F0001446C0E71A46A446E0E700BF014B18685B
:10090000704700BF0000002070B5104E33680546E8
:100910000C46B3B12146284600F06EFC431C0CD0B7
:10092000C41C24F00304A04205D0211A284600F07C
:1009300063FC013001D0204670BD4FF0FF342046EB
:1009400070BD194600F058FC3060E3E778000020E5
:100950002DE9F843CD1C25F0030508350C2D38BFD3
:100960000C25002D064618DBA94216D8DFF8DC80DE
:1009700000F03EFCD8F80420A2B1144603E06368FE
:1009800022467BB11C4623685B1BF8D40B2B1FD877
:100990009442636854D053600CE00C233360002011
:1009A000BDE8F88329463046FFF7AEFF431C0446F6
:1009B00019D00560304600F01DFC04F10B00231D2A
:1009C00020F00700C21A1CBF1B1AA350BDE8F88311
:1009D00061199442256014BF5160C8F80410635136
:1009E00063684B60E6E7D8F804701FB33C467F6845
:1009F000002FFBD123683946304604EB030900F091
:100A0000FBFB814516D12368ED1A29463046FFF7D6
:100A10007BFF01300ED02368D8F804202B442360DC
:100A2000536883B1A34203D01A465B689C42FBD152
:100A30000023B0E70C233360304600F0DBFBAEE769
:100A4000C8F80430B6E7C8F80470B3E778000020AF
:100A5000002950D038B551F8043C0C1F002BB8BF0A
:100A6000E418054600F0C4FB274A13682BB1A342E3
:100A70000CD92168601883422CD06360284614602A
:100A8000BDE8384000F0B6BBA3420FD81A465B68F9
:100A9000002BF9D111685018844217D02CD3636011
:100AA00054602846BDE8384000F0A4BB11685018D7
:100AB000A04214D020D8216860188342EFD1186872
:100AC0005B680844C4E900035460EAE723680B4408
:100AD0001360E6E718685B6808442060CDE720688B
:100AE0000144501883421160DBD1D3E90004014472
:100AF000C2E90014D5E770470C232B602846BDE8F7
:100B0000384000F077BB00BF7C00002088420ED93F
:100B10008B1883420BD900EB020C002A6ED0624680
:100B200013F801CD02F801CD9942F9D170470F2A8F
:100B30000FD8034602F1FF3C002A5FD00CF1010CF4
:100B4000013B8C4411F8012B03F8012F6145F9D1C9
:100B5000704740EA01039B0751D1A2F1100370B521
:100B600001F1200C23F00F0501F1100E00F110042B
:100B7000AC441B095EF8105C44F8105C5EF80C5C39
:100B800044F80C5C5EF8085C44F8085C5EF8045CB1
:100B900044F8045C0EF1100EE64504F11004E9D1AE
:100BA000013312F00C0F01EB031102F00F0400EB04
:100BB000031328D0043C24F003064FEA940C1E448F
:100BC0001C1F8E465EF8045B44F8045FB442F9D102
:100BD0000CF1010402F0030203EB840301EB840136
:100BE00002F1FF3C4AB10CF1010C013B8C4411F8BD
:100BF000012B03F8012F6145F9D170BD704702F157
:100C0000FF3C03469AE72246EAE700BF00000000E7
:100C100001F0FF01102A2BDB10F0070F08D010F8AD
:100C2000013B013A8B422DD010F0070F42B3F6D1B1
:100C3000F0B441EA012141EA014122F007047FF0CA
:100C400000070023F0E80256083C85EA010586EA21
:100C5000010685FA47F5A3FA87F586FA47F6A5FA5D
:100C600087F68EB9EED1F0BC01F0FF0102F0070269
:100C700032B110F8013B013A83EA010313B1F8D114
:100C80000020704701387047002D06BF35460338F5
:100C9000073815F0010F07D1013015F4807F02BF2E
:100CA000013015F4C03F0130F0BC0138704700BF7F
:100CB000844641EA000313F003036DD1403A41D367
:100CC00051F8043B40F8043B51F8043B40F8043B26
:100CD00051F8043B40F8043B51F8043B40F8043B16
:100CE00051F8043B40F8043B51F8043B40F8043B06
:100CF00051F8043B40F8043B51F8043B40F8043BF6
:100D000051F8043B40F8043B51F8043B40F8043BE5
:100D100051F8043B40F8043B51F8043B40F8043BD5
:100D200051F8043B40F8043B51F8043B40F8043BC5
:100D300051F8043B40F8043B51F8043B40F8043BB5
:100D4000403ABDD2303211D351F8043B40F8043B55
:100D500051F8043B40F8043B51F8043B40F8043B95
:100D600051F8043B40F8043B103AEDD20C3205D365
:100D700051F8043B40F8043B043AF9D2043208D05D
:100D8000D2071CBF11F8013B00F8013B01D30B88CF
:100D900003806046704700BF082A13D38B078DD0AD
:100DA00010F003038AD0C3F10403D21ADB071CBF7F
:100DB00011F8013B00F8013B80D331F8023B20F8E9
:100DC000023B7BE7043AD9D3013A11F8013B00F822
:100DD000013BF9D20B7803704B7843708B788370AA
:100DE000604670472DE9F041144641B30AB3064608
:100DF0000D4600F013FA8442074602D8B4EB500FB8
:100E000013D821463046FFF7A3FD804650B1BC42BF
:100E10002246294628BF3A46FFF74AFF2946304670
:100E2000FFF716FE4046BDE8F081A8464046BDE803
:100E3000F081A046FFF70CFE4046BDE8F081BDE81A
:100E4000F0411146FFF784BD2DE9F84F92461F4649
:100E50000A698B68DDF828909A42B8BF1A46CAF82A
:100E6000002091F843300C46064613B10132CAF80F
:100E70000020226891065FD5DAF800300233CAF804
:100E80000030226812F0060F11461DD1E168994228
:100E9000D8BF114618DD4FF0000804F1190B05E02A
:100EA000E568DAF80030ED1A45450CDD01235A46B5
:100EB00039463046C847013008F10108F0D14FF0FB
:100EC000FF30BDE8F88F216894F84330003B18BF2D
:100ED00001238A060AD5E1185A1C302081F8430004
:100EE000224494F8451082F84310023304F143027F
:100EF00039463046C8470130E1D02368DAF800505F
:100F0000216903F00603042BD4E902201BD08A4296
:100F100020DD4FF00008521A90441A34002501E0F9
:100F2000454517DA0123224639463046C847013085
:100F300005F10105F4D1C2E712F0060F0DD0003B18
:100F400018BF0123D2E7401B8A4220EAE078E2DCA6
:100F50000028E2DC0020BDE8F88FE168DAF8003014
:100F60009942D8BF114696DCAEE700BF2DE9F047A5
:100F7000174684B00A7E0C9D0C460646984601F141
:100F8000430C002A35D0A2F15803D9B2202969D8E0
:100F9000202B67D8DFE813F0E600660066006600E5
:100FA0006600660066006600660066006600AC00CB
:100FB00070006600660066006600700066006600ED
:100FC0006600660021008300C60066006600B60069
:100FD0006600830066006600EC002B682268616989
:100FE000181D286010061B6802D4520600F1E0802C
:100FF00019600023E1462361CDF800803B4603AA37
:1010000021463046FFF720FF013020D023694A46B1
:1010100039463046C047013019D02368E068DDF812
:101020000C909B0718D5484516DD002504F1190AD8
:1010300004E0E068A0EB0903AB420DDD012352465A
:1010400039463046C047013005F10105F1D14FF076
:10105000FF3004B0BDE8F0874845B8BF484604B04B
:10106000BDE8F08784F84220012004F14209002302
:10107000206184F84330BFE72A682368111D1806F1
:10108000296002D4590600F19580106801460028B5
:101090006268C0F2938054484FF00A0E15E0206851
:1010A0002B6810F0800F53F8041B02D1400648BF94
:1010B00089B26F2A4C482B6014BF4FF00A0E4FF0D4
:1010C000080E0023626884F84330002AA26051DBD6
:1010D000236823F00403236000294BD1002A7BD12D
:1010E000E146BEF1080F56D0ACEB0903236183E75C
:1010F0002B681A6804332B6004F1420984F84220FB
:101100000120B4E72B686268191D2960D3F80090AC
:1011100000214846FFF77CFD002863D0A0EB0900C2
:101120006060A4E7236843F02003236078222F48FF
:1011300084F845202A6813F0800F52F8041B03D16D
:1011400013F0400F18BF89B22A60DA0744BF43F09A
:101150002003236019B9236823F0200323604FF094
:10116000100EAEE7582384F845301F482368E1E7A6
:101170002368DBE77546E146B1FBF5F305FB131A7F
:101180000A46AA4210F80A1009F8011D1946F3D2BE
:10119000BEF1080FA8D12368DD07A5D562682369D1
:1011A0009A42A1DC302309F8013C09F1FF399BE7A1
:1011B00019801EE7B2F90010084668E72D20002AC2
:1011C000A26084F8430002DB23F0040323600A25B5
:1011D00005484942AE46CEE7037884F8423004F130
:1011E00042097EE7606842E75057000864570008EC
:1011F000704700BF704700BF38B5074D0022044656
:1012000008462A6004F0ACF9431C00D038BD2B68B6
:10121000002BFBD0236038BDBC01002051F8043CFA
:10122000181F002BBCBF0B58C018704781F000413D
:1012300002E000BF83F0004330B54FEA41044FEABB
:10124000430594EA050F08BF90EA020F1FBF54EA56
:10125000000C55EA020C7FEA645C7FEA655C00F0F2
:10126000E2804FEA5454D4EB5555B8BF6D420CDDC3
:101270002C4480EA020281EA030382EA000083EA46
:10128000010180EA020281EA0303362D88BF30BDE6
:1012900011F0004F4FEA01314FF4801C4CEA11313C
:1012A00002D0404261EB410113F0004F4FEA03339B
:1012B0004CEA133302D0524263EB430394EA050F26
:1012C00000F0A780A4F10104D5F1200E0DDB02FA95
:1012D0000EFC22FA05F2801841F1000103FA0EF229
:1012E000801843FA05F359410EE0A5F120050EF1EF
:1012F000200E012A03FA0EFC28BF4CF0020C43FA20
:1013000005F3C01851EBE37101F0004507D54FF02C
:10131000000EDCF1000C7EEB00006EEB0101B1F57C
:10132000801F1BD3B1F5001F0CD349085FEA3000C2
:101330004FEA3C0C04F101044FEA445212F5800FCD
:1013400080F09A80BCF1004F08BF5FEA500C50F16A
:10135000000041EB045141EA050130BD5FEA4C0C4D
:10136000404141EB0101013C28BFB1F5801FE9D2AA
:1013700091F0000F04BF01460020B1FA81F308BFCD
:101380002033A3F10B03B3F120020CDA0C3208DD99
:1013900002F1140CC2F10C0201FA0CF021FA02F174
:1013A0000CE002F11402D8BFC2F1200C01FA02F1E4
:1013B00020FA0CFCDCBF41EA0C019040E41AA2BF09
:1013C00001EB0451294330BD6FEA04041F3C1CDAD1
:1013D0000C340EDC04F11404C4F1200220FA04F0F1
:1013E00001FA02F340EA030021FA04F345EA03019B
:1013F00030BDC4F10C04C4F1200220FA02F001FA5D
:1014000004F340EA0300294630BD21FA04F02946DE
:1014100030BD94F0000F83F4801306BF81F4801177
:101420000134013D4EE77FEA645C18BF7FEA655CEA
:1014300029D094EA050F08BF90EA020F05D054EABC
:10144000000C04BF1946104630BD91EA030F1EBFC1
:101450000021002030BD5FEA545C05D140004941C5
:1014600028BF41F0004130BD14F580043CBF01F5B8
:10147000801130BD01F0004545F0FE4141F470019E
:101480004FF0000030BD7FEA645C1ABF1946104679
:101490007FEA655C1CBF0B46024650EA013406BF7A
:1014A00052EA033591EA030F41F4002130BD00BF39
:1014B00090F0000F04BF0021704730B54FF48064F6
:1014C00004F132044FF000054FF0000150E700BF77
:1014D00090F0000F04BF0021704730B54FF48064D6
:1014E00004F1320410F0004548BF40424FF00001C3
:1014F0003EE700BF42004FEAE2014FEA31014FEA06
:1015000002701FBF12F07F4393F07F4F81F0605154
:10151000704732F07F4208BF704793F07F4F04BF9F
:1015200041F40021704730B54FF4607401F000457C
:1015300021F000411CE700BF50EA010208BF7047DC
:1015400030B54FF000050AE050EA010208BF7047CD
:1015500030B511F0004502D5404261EB41014FF436
:10156000806404F132045FEA915C3FF4D8AE4FF03E
:1015700003025FEADC0C18BF03325FEADC0C18BF21
:10158000033202EBDC02C2F1200300FA03FC20FA72
:1015900002F001FA03FE40EA0E0021FA02F11444BF
:1015A000BDE600BF70B54FF0FF0C4CF4E06C1CEAD8
:1015B00011541DBF1CEA135594EA0C0F95EA0C0F49
:1015C00000F0DEF82C4481EA030621EA4C5123EABC
:1015D0004C5350EA013518BF52EA033541F48011EB
:1015E00043F4801338D0A0FB02CE4FF00005E1FB9E
:1015F00002E506F00042E0FB03E54FF00006E1FBE8
:1016000003569CF0000F18BF4EF0010EA4F1FF042A
:10161000B6F5007F64F5407404D25FEA4E0E6D416A
:1016200046EB060642EAC62141EA55514FEAC5207B
:1016300040EA5E504FEACE2EB4F1FD0C88BFBCF5F7
:10164000E06F1ED8BEF1004F08BF5FEA500E50F1A8
:10165000000041EB045170BD06F0004646EA01016E
:1016600040EA020081EA0301B4EB5C04C2BFD4EBA0
:101670000C0541EA045170BD41F480114FF0000E99
:10168000013C00F3AB8014F1360FDEBF002001F007
:10169000004170BDC4F10004203C35DA0C341BDC81
:1016A00004F11404C4F1200500FA05F320FA04F053
:1016B00001FA05F240EA020001F0004221F0004187
:1016C00010EBD37021FA04F642EB06015EEA430EFA
:1016D00008BF20EAD37070BDC4F10C04C4F120052A
:1016E00000FA04F320FA05F001FA04F240EA0200DD
:1016F00001F0004110EBD37041F100015EEA430EAE
:1017000008BF20EAD37070BDC4F1200500FA05F2CD
:101710004EEA020E20FA04F301FA05F243EA02034C
:1017200021FA04F001F0004121FA04F220EA02005B
:1017300000EBD3705EEA430E08BF20EAD37070BDA1
:1017400094F0000F0FD101F00046400041EB010181
:1017500011F4801F08BF013CF7D041EA060195F063
:10176000000F18BF704703F00046520043EB03031D
:1017700013F4801F08BF013DF7D043EA060370470A
:1017800094EA0C0F0CEA135518BF95EA0C0F0CD015
:1017900050EA410618BF52EA4306D1D181EA03015B
:1017A00001F000414FF0000070BD50EA410606BF55
:1017B0001046194652EA430619D094EA0C0F02D19A
:1017C00050EA013613D195EA0C0F05D152EA0336DF
:1017D0001CBF104619460AD181EA030101F00041FD
:1017E00041F0FE4141F470014FF0000070BD41F046
:1017F000FE4141F4780170BD70B54FF0FF0C4CF420
:10180000E06C1CEA11541DBF1CEA135594EA0C0F3E
:1018100095EA0C0F00F0A7F8A4EB050481EA030E8B
:1018200052EA03354FEA013100F088804FEA033372
:101830004FF0805545EA131343EA12634FEA022240
:1018400045EA111545EA10654FEA00260EF0004101
:101850009D4208BF964244F1FD0404F5407402D253
:101860005B084FEA3202B61A65EB03055B084FEAE4
:1018700032024FF480104FF4002CB6EB020E75EBE1
:10188000030E22BFB61A754640EA0C005B084FEA09
:101890003202B6EB020E75EB030E22BFB61A754686
:1018A00040EA5C005B084FEA3202B6EB020E75EBD1
:1018B000030E22BFB61A754640EA9C005B084FEA49
:1018C0003202B6EB020E75EB030E22BFB61A754656
:1018D00040EADC0055EA060E18D04FEA051545EA45
:1018E00016754FEA06164FEAC30343EA52734FEAEE
:1018F000C2025FEA1C1CC0D111F4801F0BD141EA67
:1019000000014FF000004FF0004CB6E711F4801FCB
:1019100004BF01430020B4F1FD0C88BFBCF5E06FAB
:101920003FF6AFAEB5EB030C04BFB6EB020C5FEABB
:10193000500C50F1000041EB045170BD0EF0004E10
:101940004EEA113114EB5C04C2BFD4EB0C0541EA42
:10195000045170BD41F480114FF0000E013C90E63F
:1019600045EA060E8DE60CEA135594EA0C0F08BF03
:1019700095EA0C0F3FF43BAF94EA0C0F0AD150EA02
:1019800001347FF434AF95EA0C0F7FF425AF104695
:1019900019462CE795EA0C0F06D152EA03353FF4BD
:1019A000FDAE1046194622E750EA410618BF52EA3A
:1019B00043067FF4C5AE50EA41047FF40DAF52EA0E
:1019C00043057FF4EBAE12E74FEA4102B2F1E04388
:1019D00024BFB3F5001CDCF1FE5C0DD901F0004C16
:1019E0004FEAC0024CEA5070B2F1004F40EB830066
:1019F00008BF20F00100704711F0804F21D113F192
:101A00003872BCBF01F00040704741F480114FEACA
:101A10005252C2F11802C2F1200C10FA0CF320FA53
:101A200002F018BF40F001004FEAC1234FEAD32370
:101A300003FA0CFC40EA0C0023FA02F34FEA4303DA
:101A4000CCE77FEA625307D150EA01331EBF4FF063
:101A5000FE4040F44000704701F0004040F0FE407E
:101A600040F40000704700BF53B94AB9002908BFCD
:101A700000281CBF4FF0FF314FF0FF3000F06AB973
:101A8000ADF1080C6DE904CE00F006F8DDF804E0D5
:101A9000DDE9022304B070472DE9F047089D0E46AA
:101AA00004460F46002B4AD194468C45B2FA82F286
:101AB00060D942B1C2F12003974020FA03F30CFA37
:101AC00002FC1F4394404FEA1C4E1FFA8CF6B7FBF2
:101AD000FEF1230C0EFB117743EA074301FB06F0EE
:101AE00098420AD91CEB030301F1FF3780F01581FE
:101AF000984240F21281023963441B1AA4B2B3FB2C
:101B0000FEF00EFB103344EA034400FB06F6A64247
:101B10000AD91CEB040400F1FF3380F00081A642D7
:101B200040F2FD806444023840EA0140A41B0021D9
:101B30001DB1D4400023C5E90043BDE8F0878B42C6
:101B400005D90DB1C5E9000100210846F5E7B3FA52
:101B500083F1002946D1B34202D3824200F2F580DC
:101B6000841A66EB030201201746002DE5D0C5E973
:101B70000047E2E7002A40F09380A1EB0C034FEA14
:101B80001C471FFA8CFE0121B3FBF7F607FB16304A
:101B9000230C43EA00430EFB06F0984208D91CEBE5
:101BA000030306F1FF3802D2984200F2D080464685
:101BB0001B1AA4B2B3FBF7F007FB103344EA03444B
:101BC0000EFB00FEA64508D91CEB040400F1FF3310
:101BD00002D2A64500F2B6801846A4EB0E0440EAF5
:101BE0000640A5E7C1F120078B4022FA07FC4CEA2A
:101BF000030C06FA01FE20FA07F426FA07F344EA7A
:101C00000E0400FA01F84FEA1C404FEA1449B3FBF6
:101C1000F0FE1FFA8CF600FB1E3349EA03430EFB6D
:101C200006F9994502FA01F20BD91CEB03030EF1F8
:101C3000FF3A80F08580994540F28280AEF1020E35
:101C40006344A3EB0909A4B2B9FBF0F300FB1399B9
:101C500044EA094403FB06F6A64208D91CEB040437
:101C600003F1FF3068D2A64266D9023B644443EADE
:101C70000E40A41BA0FB02E6B4427346B14652D309
:101C80004FD05DB1B8EB030264EB090404FA07F727
:101C900022FA01F31F43CC40C5E9007400214CE750
:101CA000C2F1200120FA01F30CFA02FC26FA01F13C
:101CB000964033434FEA1C471FFA8CFEB1FBF7F006
:101CC00007FB1016190C41EA064100FB0EF68E4286
:101CD00004FA02F408D91CEB010100F1FF382DD2FF
:101CE0008E422BD902386144891B9BB2B1FBF7F6B7
:101CF00007FB161143EA014306FB0EF1994208D98E
:101D00001CEB030306F1FF3814D2994212D9023EAC
:101D100063445B1A46EA004136E73946EDE6184669
:101D200002E7F045ADD2BEEB020366EB0C060138CC
:101D3000B146A6E74646ECE7034698E74046D3E7B8
:101D4000D6467EE76444023847E708460DE7023E80
:101D500063442DE7704700BF30B58BB00024059475
:101D600006940794089409940194224B1A6B42F04C
:101D700004021A631A6B02F004020192019A02949F
:101D80001A6B42F080021A631A6B02F08002029210
:101D9000029A03941A6B42F001021A631A6B02F062
:101DA00001020392039A04941A6B42F002021A632E
:101DB0001B6B03F002030493049B0F4D224620216A
:101DC000284602F079FF4FF4005305934FF40413B3
:101DD0000693079405A9094802F07EFE2023059387
:101DE000012306930794089405A9284602F074FE7F
:101DF0000BB030BD00380240000002400008024035
:101E000010B582B0002401940D4B1A6B42F40012FD
:101E10001A631B6B03F400130193019B22462146B6
:101E20000B2003F075F90B2003F082F922462146BE
:101E3000112003F06DF9112003F07AF902B010BD02
:101E40000038024072B6FEE708B50A480A4B036044
:101E50004FF4E133436000238360C36003610C22CD
:101E600042618361C36103F0DAFA00B908BDFFF78C
:101E7000E9FF00BFAC0200200044004008B50A485A
:101E80000A4B03600A4B436000238360C3604FF436
:101E90008042026143618361C361036201F018F90A
:101EA00000B908BDFFF7CEFFB40300200054004086
:101EB000A086010000B595B03422002107A8FEF7E6
:101EC000CBFC0023029303930493059306930093A2
:101ED0001F4A116C41F080511164126C02F0805263
:101EE0000092009A01931B490A6822F4404242F48E
:101EF00080420A600A6802F440420192019A02227A
:101F0000079201210A9110210B910D920E930F91CE
:101F10004FF4A8731093042311931292139207A8FD
:101F200002F0B8FB80B90F23029302210391002332
:101F300004934FF480520592069302A802F00CFA23
:101F400020B915B05DF804FBFFF77CFFFFF77AFFBF
:101F500000380240007000402DE9F04184B003F0E9
:101F600025F9FFF7A7FFFFF7F7FEFFF749FFFFF798
:101F70006BFFFFF783FF944E3446944D0FCD0FC493
:101F800095E8070003C422703046FEF7F9FB4FF0D6
:101F9000FF3382B231468E4803F071FA8D4800F06B
:101FA000D5F998B934468C4D0FCD0FC495E807008C
:101FB00084E80700844C2046FEF7E2FB4FF0FF3335
:101FC00082B22146824803F05AFA65E17E4C834D85
:101FD0000FCD0FC495E80F0084E80F00EAE77A4DB3
:101FE000AC467F4C0FCCACE80F0094E803008CE8C3
:101FF00003002846FEF7C4FB754C4FF0FF3382B256
:102000002946204603F03BFA764A9378D17801912D
:1020100000935378127874492846FEF753F92846FE
:10202000FEF7AEFB4FF0FF3382B22946204603F0A5
:1020300026FA38E16D4EB6F90000FFF749FA0022A2
:102040006B4BFFF7AFFAFFF7BFFC0446B6F902008F
:10205000FFF73EFA0022664BFFF7A4FAFFF7B4FC45
:102060000546B6F90400FFF733FA0022604BFFF78C
:1020700099FAFFF7A9FC80462046FFF73BFA06468F
:102080000F46514C4046FFF735FACDE9020128468C
:10209000FFF730FACDE9000132463B46554920466C
:1020A000FEF710F92046FEF76BFB4FF0FF3382B2CC
:1020B0002146474803F0E3F9FCE04F4EB6F9000033
:1020C000FFF706FA00224D4BFFF796FBFFF77CFC6B
:1020D0000446B6F90200FFF7FBF90022474BFFF771
:1020E0008BFBFFF771FC0546B6F90400FFF7F0F92A
:1020F0000022424BFFF780FBFFF766FC804620463C
:10210000FFF7F8F906460F462F4C4046FFF7F2F965
:10211000CDE902012846FFF7EDF9CDE9000132468D
:102120003B4637492046FEF7CDF82046FEF728FB10
:102130004FF0FF3382B22146254803F0A0F9C0E0FA
:10214000304EB6F90000FFF7C3F90022284BFFF725
:1021500029FAFFF739FC0446B6F90200FFF7B8F98F
:102160000022234BFFF71EFAFFF72EFC0546B6F9B7
:102170000400FFF7ADF900221D4BFFF713FAFFF73C
:1021800023FC80462046FFF7B5F906460F460E4C65
:102190004046FFF7AFF9CDE902012846FFF7AAF95B
:1021A000CDE9000132463B4617492046FEF78AF842
:1021B0002046FEF7E5FA4FF0FF3382B2214604488D
:1021C00003F05DF984E000BFE4010020145600082C
:1021D000AC020020B4030020305600084C56000822
:1021E0006C560008C001002084560008C40100207D
:1021F0000000B03FAC560008DC0100200000594050
:10220000CC560008D4010020F0560008344EB6F930
:102210000000FFF75DF90022324BFFF7C3F9FFF72B
:10222000D3FB0446B6F90200FFF752F900222D4B0A
:10223000FFF7B8F9FFF7C8FB0546B6F90400FFF74A
:1022400047F90022274BFFF7ADF9FFF7BDFB8046AA
:102250002046FFF74FF906460F46234C4046FFF74E
:1022600049F9CDE902012846FFF744F9CDE900011B
:1022700032463B461D492046FEF724F82046FEF72D
:102280007FFA4FF0FF3382B22146194803F0F7F886
:102290004FF4FA7002F0B6FF1649174800F071F9D2
:1022A00000283FF49CAE1549134800F043F900287C
:1022B0003FF4C0AE1249104800F0C7F800283FF4C0
:1022C000FCAE10490C4800F0E7F800283FF438AFA6
:1022D0000349094800F007F9002897D0D8E700BF64
:1022E000CC0100200000B03FE40100201857000896
:1022F000AC020020C0010020B4030020C401002073
:10230000DC010020D401002000B587B08DF8171043
:102310004FF47A730293012301930DF11702009297
:102320003D22502100F0B2FF07B05DF804FB00B57C
:1023300085B04FF47A730293012301930091002238
:10234000502101F055F805B05DF804FB30B587B0B9
:10235000044640F28A2002F055FF0DF11701204695
:10236000FFF7E5FF00286ED19DF81730A02B03D0B2
:102370000125284607B030BD00212046FFF7C4FFE5
:1023800005460028F5D1192002F03CFF20238DF8E6
:1023900016304FF47A730293012301930DF1160264
:1023A00000923F225021204600F070FF0546002891
:1023B000DFD140F28A2002F025FF00238DF815308E
:1023C0004FF47A730293012301930DF115020092E9
:1023D0003E225021204600F059FF05460028C8D172
:1023E0000A2002F00FFF00238DF814304FF47A73A7
:1023F00002930123019305AA00920722502120464F
:1024000000F044FF05460028B3D100238DF81330B7
:102410004FF47A730293012301930DF1130200929A
:102420003B225021204600F031FF05460028A0D174
:102430000C212046FFF768FF0546002899D114209B
:1024400002F0E0FE95E7012593E710B586B00C4653
:102450004FF47A7302930623019304AB0093012394
:102460000822502100F0C4FFA0B99DF811209DF86A
:10247000103043EA022323809DF813209DF8123088
:1024800043EA022363809DF815209DF8143043EA47
:102490000223A38006B010BD10B586B00C464FF4E1
:1024A0007A7302930623019304AB00930123142251
:1024B000502100F09DFFA0B99DF811209DF810302B
:1024C00043EA022323809DF813209DF8123043EA4B
:1024D000022363809DF815209DF8143043EA0223FF
:1024E000A38006B010BD10B586B00C464FF47A73C9
:1024F00002930623019304AB009301230E22502183
:1025000000F076FFA0B99DF811209DF8103043EA45
:10251000022323809DF813209DF8123043EA022302
:1025200063809DF815209DF8143043EA0223A380B0
:1025300006B010BD10B586B00C464FF47A73029306
:102540000623019304AB009301231A22502100F0CB
:102550004FFFA0B99DF811209DF8103043EA0223E7
:1025600023809DF813209DF8123043EA02236380F4
:102570009DF815209DF8143043EA0223A38006B08D
:1025800010BD10B586B00C464FF47A730293012348
:1025900001930DF1170200923522502100F028FF1F
:1025A00060B99DF817309A092270C3F30112627066
:1025B000C3F38102A27003F00303E37006B010BD01
:1025C000FEE7FEE7FEE7FEE7FEE77047704770476D
:1025D00008B502F005FE08BD08B5024802F052FC3D
:1025E00008BD00BFF402002008B5024802F04AFC12
:1025F00008BD00BF5403002008B5024801F07AFD71
:1026000008BD00BFB403002008B5024801F042FE37
:1026100008BD00BFB403002000B583B000210091C5
:102620000C4B5A6C42F480425A645A6C02F4804259
:102630000092009A01911A6C42F080521A641B6C4D
:1026400003F080530193019B072002F04FFD03B07C
:102650005DF804FB003802402DE9F04F89B00023FB
:10266000039304930593069307930268414B9A42A0
:1026700002D009B0BDE8F08F0446002501953E4E1A
:10268000336B43F002033363336B03F002030193B4
:10269000019B402703974FF0120BCDF810B0012398
:1026A00005934FF0030ACDF818A04FF00409CDF8B8
:1026B0001C90DFF8D88003A9404602F00DFA802371
:1026C0000393CDF810B00595CDF818A0CDF81C9067
:1026D00003A9404602F000FA0295336C43F400135C
:1026E0003364336C03F400130293029B2348244B9E
:1026F00003604FF0007343608760C5604FF48063F0
:10270000036145618561C5610562456202F040FB78
:1027100050BB1A4B63639C631A481B4B03604FF01A
:102720000073436000238360C3604FF480620261E2
:1027300043618361C3610362436202F029FBB0B964
:10274000104BA3639C63002211461F2002F0E0FCA3
:102750001F2002F0EDFC00221146202002F0D8FCE0
:10276000202002F0E5FC84E7FFF76CFBD1E7FFF7E0
:1027700069FBE5E7005400400038024054030020A4
:10278000A0600240F40200201060024000040240F9
:1027900000B589B000230393049305930693079330
:1027A0000268154B9A4202D009B05DF804FB002183
:1027B000019103F5FA331A6C42F400321A641A6C70
:1027C00002F400320192019A02911A6B42F0010266
:1027D0001A631B6B03F001030293029B0C23039308
:1027E00002230493032306930723079303A90348B3
:1027F00002F072F9D8E700BF004400400000024038
:1028000003685A6912F0800F01D000221A617047E4
:1028100090F83E30DBB2402B10D00369B3F5804F07
:102820001BD0036D002B39D1436CC3F3C81302686E
:1028300003F0060343F0F00313617047036D2BB9F7
:10284000436C026803F0FE0313617047436C026837
:1028500043F00103DBB21361704790F83D30DBB207
:10286000212B0FD0436C026843F00103DBB21361EC
:10287000436B6BB1DB6B5BB10268536843F400637D
:1028800053607047436C026803F0FE031361EFE787
:10289000836B33B1DB6B002BEED102E0036D012BB8
:1028A00000D07047436CC3F3C813026803F00603FB
:1028B00043F0F1031361F4E7436C0268DBB2136188
:1028C000436B3BB1DB6B2BB10268536843F400638D
:1028D00053607047836B002BFBD0DB6B002BF3D175
:1028E000F7E7000010B48BB090F83E30DAB2C16A5E
:1028F000046B90F83D30DBB2222B0BD00023099300
:1029000003685A6909929B690993099B0BB05DF8AA
:10291000044B7047036D0BB9402A17D0036D1BB9E8
:102920000369B3F5404F19D0438D9BB2002B25D1DD
:10293000029303685A6902929A690292029A1A688B
:1029400042F400721A6000230365DFE70093036816
:102950005A6900929B690093009BD7E7002301937B
:1029600003685A6901929A690192019A1A6842F4BD
:1029700080721A60036D01330365C7E7438D9BB214
:10298000012B26D0438D9BB2022B7CD002681368AA
:1029900043F48063136003685A6812F4006F0FD029
:1029A000202900F2AE800829C0F0A7800839574AD4
:1029B000CA4012F0010F03D05A6842F480525A60A4
:1029C0000023089303685A6908929B690893089B3F
:1029D000B9E711F5803F11D0082934D0202932D031
:1029E000122C2ED0042940D002293ED010293CD0F0
:1029F0000268136823F4806313603BE00268136885
:102A000023F48063136003685A6812F4006F0CD0DB
:102A10001A6822F480621A600023039303685A69DB
:102A200003929B690393039B8DE7002204925A69EA
:102A300004929A690492049A1A6842F400721A6025
:102A400081E70129D0D00268136823F48063136002
:102A50000023069303685A6906929A690692069AB9
:102A60001A6842F400721A606DE70268136843F452
:102A7000806313600023059303685A6905929B697C
:102A80000593059B5FE710290AD8214BCB4013F033
:102A9000010F05D00268136843F48063136009E0F6
:102AA0000268136823F4806313600268136843F4B8
:102AB0000063136003685A6812F4006F0DD0202978
:102AC00017D8082912D30839104ACA4012F0010F4A
:102AD00003D05A6842F480525A6000230793036877
:102AE0005A6907929B690793079B2CE70129F4D148
:102AF000EFE711F5803FF0D1EBE701297FF460AFFC
:102B00005AE711F5803F7FF45BAF55E70101000103
:102B100014000100438D9BB25BB1426A03681278D6
:102B20001A61436A01334362438D9BB2013B9BB2FE
:102B300043857047438D9BB25BB103681A69436A52
:102B40001A70436A01334362438D9BB2013B9BB2CF
:102B50004385704782B0002301930E4B1B68DB084E
:102B60000D4AA2FB03231B0A03EB83030193019B82
:102B7000013B0193019B33B103681B6813F4007F91
:102B8000F5D1002004E0036C43F02003036401202E
:102B900002B070475800002089B5F81403685A69DC
:102BA00012F4806F01D1002070476FF480625A6187
:102BB00000230363202280F83D2080F83E30026C21
:102BC00042F00402026480F83C3001207047C36A7E
:102BD000B3F52A0F04D0C36AB3F12A4F03D070476C
:102BE0000123C36270470823C362F8E72DE9F0416F
:102BF00006460C46174698463BE002F0FDFA069B57
:102C0000C01A404502D8B8F1000F32D1012D18D0BA
:102C100033689B6924EA03039BB2B3FA83F35B092D
:102C20009F4226D100233363202286F83D2086F878
:102C30003E30326C42F02002326486F83C30012093
:102C400027E033685B6924EA03039BB2B3FA83F39A
:102C50005B09E5E733685B6924EA030C1FFA8CFC27
:102C6000BCFA8CFC4FEA5C1C674511D1B8F1FF3F00
:102C7000C3D1C4F30745012DECD033689B6924EA26
:102C8000030C1FFA8CFCBCFA8CFC4FEA5C1CEBE7D3
:102C90000020BDE8F0812DE9F84305460E46904638
:102CA000994653E01A6842F400721A602B686FF478
:102CB00080625A6100232B63202285F83D2085F82D
:102CC0003E302A6C42F004022A6485F83C30012030
:102CD0004AE002F091FAA0EB0900404502D8B8F1B1
:102CE000000F33D1012F17D02B689B6926EA03030D
:102CF0009BB2003B18BF012343B300232B63202268
:102D000085F83D2085F83E302A6C42F020022A6486
:102D100085F83C30012027E02B685B6926EA030335
:102D20009BB2003B18BF0123E6E72B689C6926EAAB
:102D30000404A4B2003C18BF0124A4B12B685A6952
:102D400012F4806FAED1B8F1FF3FC2D1C6F307478E
:102D5000012FEAD12B685C6926EA0404A4B2003C86
:102D600018BF0124E9E70020BDE8F88370B50446E8
:102D70000D46164623685B6913F0800F21D120466B
:102D8000FFF70CFFF8B9B5F1FF3FF3D002F034FACA
:102D9000801BA84201D8002DECD123685B6913F099
:102DA000800FE7D100232363202284F83D2084F89C
:102DB0003E30226C42F02002226484F83C30012034
:102DC00000E0002070BD0120FCE700002DE9F04389
:102DD00085B004460D4691461F46DDF830800D9EB5
:102DE0000368196841F48071196000964346002217
:102DF0004FF00111FFF7FAFE60B9236805F0FE05F8
:102E00001D613346424626492046FFF744FF68B11C
:102E1000012008E023681B6813F4807F02D04FF480
:102E200000732364032005B0BDE8F08300230393FF
:102E300023685A6903929B690393039B3246414678
:102E40002046FFF793FF30B9012F0FD123685FFAB7
:102E500089F61E61E7E7236C042B01D00120E2E72D
:102E60002268136843F400731360F7E723684FEA9E
:102E700019221A61324641462046FFF777FF20B9F2
:102E800023685FFA89F61E61CDE7236C042B01D01D
:102E90000120C8E72268136843F400731360F7E762
:102EA000020001002DE9F04784B004460D461646A5
:102EB00099460C9FDDF834800268136843F4806300
:102EC00013600368196841F480711960CDF80080BF
:102ED0003B4600224FF00111FFF788FE70B95FFA00
:102EE00085FA236805F0FE051D6143463A464149CF
:102EF0002046FFF7D0FE68B1012008E023681B6878
:102F000013F4807F02D04FF400732364032004B0D5
:102F1000BDE8F0870023039323685A6903929B69F5
:102F20000393039B424639462046FFF71FFF80B9B3
:102F3000B9F1010F18D12368F6B21E614246394635
:102F40002046FFF713FF68B3236C042B24D0012025
:102F5000DDE7236C042B01D00120D8E72268136839
:102F600043F400731360F7E72368320A1A6142469C
:102F700039462046FFF7FAFE18B92368F6B21E61FB
:102F8000DCE7236C042B01D00120C0E72268136822
:102F900043F400731360F7E72268136843F4007387
:102FA0001360D4E72268136843F480731360CDF88C
:102FB00000803B4600224FF001112046FFF716FE2D
:102FC00068B922684AF00103136143463A46094949
:102FD0002046FFF760FE002899D0012097E723687C
:102FE0001B6813F4807F02D04FF400732364032026
:102FF0008DE700BF0200010070B504460D4616467D
:1030000023685B6913F0040F21D12046FFF7C6FD4A
:10301000F8B9B5F1FF3FF3D002F0EEF8801BA842FB
:1030200001D8002DECD123685B6913F0040FE7D1C0
:1030300000232363202284F83D2084F83E30226C54
:1030400042F02002226484F83C30012000E000209D
:1030500070BD0120FCE770B504460D46164614E02D
:103060006FF010025A6100232363202284F83D2070
:1030700084F83E30226C226484F83C30012025E044
:1030800023685B6913F0400F10D02368586910F073
:10309000400F1AD1586910F0100FE1D102F0ACF8CE
:1030A000801BA842ECD8002DEFD1E9E70023236371
:1030B000202284F83D2084F83E30226C42F0200229
:1030C000226484F83C30012000E0002070BD000044
:1030D000002800F0CC8070B5044690F83D30002BFD
:1030E00077D0242384F83D302268136823F001034D
:1030F00013602268136843F4004313602268136866
:1031000023F40043136001F0DDF962685A4B9A42E0
:1031100064D85A4B98428CBF00230123002B40F007
:10312000A8805749A1FB00318B0C25686A6822F002
:103130003F0242EA91426A6021680A6A22F03F0235
:1031400066684D4DAE424FD8013313430B62216880
:10315000CA6922F44F4222F0FF026568464B9D4245
:103160004CD8431E6D00B3FBF5F3013340F6FC7001
:10317000034278D0C3F30B031A43CA6121680B687A
:1031800023F0C003E269206A024313430B60216805
:103190008B6823F4034323F0FF032269E0680243B2
:1031A00013438B602168CB6823F0FF036269A06939
:1031B00002431343CB602268136843F0010313609A
:1031C00000202064202384F83D30206384F83E00F2
:1031D00070BD80F83C30FFF73FFA82E7294B9842F8
:1031E0008CBF0023012399E74FF4967505FB03F389
:1031F000254DA5FB03539B090133A6E7A668BEB97D
:10320000431E05EB450CB3FBFCF30133C3F30B0387
:10321000B3FA83F35B0943BBC6B9431E05EB45050F
:10322000B3FBF5F30133C3F30B0343F40043A3E70C
:10323000431E05EB850C0CEB8C0CB3FBFCF301334C
:10324000C3F30B03B3FA83F35B09E4E7431E05EB17
:10325000850505EB8505B3FBF5F30133C3F30B03DC
:1032600043F4404388E7042386E7012384E70120F1
:1032700070470120ACE700BFA08601007F841E00DC
:1032800083DE1B43FF083D00D34D62102DE9F04360
:1032900083B004460F46904699460C9E01F0ACFF61
:1032A000054694F83D00C0B2202803D0022003B0A8
:1032B000BDE8F0830095192301224B492046FFF712
:1032C00095FC002840F0898094F83C30012B00F0F8
:1032D0008680012384F83C3023681A6812F0010FBD
:1032E00003D11A6842F001021A602268136823F4BD
:1032F00000631360212384F83D30402384F83E307E
:10330000002323640A9B6362BDF82C306385638DC0
:103310002385364BE362019500964B46424639467B
:103320002046FFF753FD00285BD1238D002B35D0BD
:103330002A4631462046FFF719FD20BB626A236802
:1033400012781A61626A531C6362218D013989B255
:103350002185638D9BB2013B9BB2638523685869CD
:1033600010F0040FE1D00029DFD052781A61636AAF
:1033700001336362238D013B2385638D9BB2013B47
:103380009BB26385D1E7236C042B01D001208EE72B
:103390002268136843F400731360F7E72A46314646
:1033A0002046FFF729FE50B1236C042B01D00120E9
:1033B0007DE72268136843F400731360F7E722681F
:1033C000136843F400731360202384F83D30002316
:1033D00084F83E3084F83C3069E7022067E7022039
:1033E00065E7012063E700BF020010000000FFFF57
:1033F0002DE9F04387B004460F4690469946109E4B
:1034000001F0FAFE054694F83D00C0B2202804D031
:103410000227384607B0BDE8F08300951923012242
:1034200088492046FFF7E2FB002840F04D8194F8E0
:103430003C30012B00F04A81012384F83C302368A2
:103440001A6812F0010F03D11A6842F001021A60E3
:103450002268136823F400631360222384F83D304C
:10346000402384F83E30002323640E9B6362BDF842
:103470003C306385638D2385734BE3620195009631
:103480004B46424639462046FFF70CFD07460028CA
:1034900040F01E81238D5BB9029323685A69029222
:1034A0009A690292029A1A6842F400721A6075E0F0
:1034B000012B0AD0022B1AD00023059323685A69E6
:1034C00005929B690593059B68E02268136823F4C5
:1034D000806313600023039323685A6903929A69F7
:1034E0000392039A1A6842F400721A6056E0226846
:1034F000136823F4806313602268136843F4006345
:1035000013600023049323685A6904929B6904930F
:10351000049B43E02A4631462046FFF79CFD0028E5
:1035200040F0D88023681A69636A1A70636A0133AD
:103530006362238D013B2385638D9BB2013B9BB26C
:1035400063852BE000953346002240492046FFF773
:103550004DFB002840F0C0802268136843F40073DC
:10356000136023681A69636A1A70626A531C636283
:10357000238D013B2385638D9BB2013B9BB2638509
:1035800023681B695370636A01336362238D013BB7
:103590002385638D9BB2013B9BB26385238D002BFA
:1035A00000F08980032B53D8012BB3D0022BC9D054
:1035B00000953346002225492046FFF717FB0028D7
:1035C00040F08C802268136823F4806313602368C2
:1035D0001A69636A1A70636A01336362238D013B5F
:1035E0002385638D9BB2013B9BB263850095334677
:1035F000002216492046FFF7F9FA002870D1226808
:10360000136843F40073136023681A69636A1A70BD
:10361000626A531C6362238D013B2385638D9BB2D9
:10362000013B9BB2638523681B695370636A013356
:103630006362238D013B2385638D9BB2013B9BB26B
:103640006385ABE7020010000000FFFF04000100EB
:103650002A4631462046FFF7FEFC002842D1236867
:103660001A69636A1A70636A01336362228D013AD0
:1036700092B22285638D9BB2013B9BB26385236826
:10368000596911F0040F89D0032A0FD023681A69F1
:10369000636A1A70636A01336362238D013B238579
:1036A000638D9BB2013B9BB2638577E71A6822F476
:1036B00080621A60EAE7202384F83D30002384F812
:1036C0003E3084F83C30A4E60227A2E60227A0E6BA
:1036D00001279EE601279CE601279AE6012798E646
:1036E000012796E6012794E670477047704708B5B2
:1036F00090F83D30DAB2438D9BB283B1416A0368E2
:1037000009781961436A01334362438D9BB2013BDF
:103710009BB24385438D9BB20BB9292A00D008BDCB
:103720000268536823F480635360212303632823D2
:1037300080F83D30FFF7DAFFF1E7704708B590F801
:103740003D30DAB2438D9BB283B103681969436A95
:103750001970436A01334362438D9BB2013B9BB2B4
:103760004385438D9BB20BB92A2A00D008BD02685D
:10377000536823F48063536022230363282380F873
:103780003D30FFF7DAFFF1E7704700B583B090F8FE
:103790003D3003F02803282B0CD00023019302684E
:1037A0005169019192690192019A80F83C3003B00D
:1037B0005DF804FB0268536823F48063536011F0E2
:1037C000040F0BD0002311F0800F09D18289002152
:1037D00080F83C101946FFF7D7FFE8E70123F2E72E
:1037E000028BF4E77047000010B5044690F83D30B6
:1037F000DBB2C26A082A01D0202A01D1282B06D0C8
:10380000212B1FD023686FF480625A6110BD1D4BBD
:10381000E3622268536823F4E063536023686FF423
:1038200080625A612268136823F480631360002366
:103830002363202284F83D2084F83E302046FFF7A1
:10384000D1FFE3E70F4BE36221232363202384F8B6
:103850003D30002384F83E302268536823F4E0634F
:10386000536023686FF480625A612268136823F4FE
:10387000806313602046FEF7C3FF2046FFF736FF44
:10388000C4E700BF0000FFFF704708B5C26A90F8A8
:103890003D30DBB2212B00D008BD438D9BB263B11C
:1038A000426A036812781A61436A01334362438DA6
:1038B0009BB2013B9BB24385EEE7082A04D0202A45
:1038C00002D012F5803F19D10268536823F4E063F7
:1038D00053600268136843F40073136000230363AA
:1038E000202380F83D3090F83E30DBB2402B15D0DD
:1038F000002380F83E30FFF7F7FECDE702685368FB
:1039000023F4E063536011230363002380F83E3007
:10391000202380F83D30FFF7E7FEBDE7002380F865
:103920003E30FFF7B1FFB7E708B590F83D30026DC4
:103930009AB9C36C012B08D0836C0268C3F30723C8
:103940001361036D0133036508BD836C0268DBB24C
:103950001361036D02330365F6E7DBB2026D012AE2
:1039600023D0026D022A3ED1222B26D0428D92B264
:103970000AB1212B2AD0428D92B2002AE4D1212B08
:10398000E2D10268536823F4E0635360026813686D
:1039900043F40073136000230363202280F83D206A
:1039A00080F83E30FFF770FFCEE7836C0268DBB231
:1039B0001361036D01330365C6E70268136843F4BE
:1039C00080731360036D01330365BDE7426A0368CA
:1039D00012781A61436A01334362438D9BB2013B03
:1039E0009BB24385B0E7FEF70BFFADE710B590F84B
:1039F0003D30DBB290F83E20D2B2C46A018D00297E
:103A00003BD1212B02D0402A42D010BD082C04D03B
:103A1000202C02D014F5803F19D10268536823F49A
:103A2000E06353600268136843F40073136000237B
:103A30000363202380F83D3090F83E30DBB2402B0A
:103A400015D0002380F83E30FFF74EFEDDE7026818
:103A5000536823F4E063536011230363002380F869
:103A60003E30202380F83D30FFF73EFECDE70023B7
:103A700080F83E30FFF708FFC7E7212BC3D1438D05
:103A80009BB243B90268536823F480635360BCE778
:103A9000222BBAD1F3E790F83E30DBB2402B0CD0AA
:103AA000426A036812781A61436A01334362438DA4
:103AB0009BB2013B9BB24385A7E7FFF735FFA4E725
:103AC000704708B5C26A438D9BB2042B14D0438D56
:103AD0009BB2032B22D0438D9BB2022B39D00368BB
:103AE0001A69436A1A70436A01334362438D9BB279
:103AF000013B9BB2438510E00268536823F4806366
:103B0000536003681A69436A1A70436A0133436257
:103B1000438D9BB2013B9BB2438508BD01684B6856
:103B200023F480634B60042A06D0022A04D0026882
:103B3000136823F48063136003681A69436A1A7078
:103B4000436A01334362438D9BB2013B9BB2438581
:103B5000E3E7531E0F2B42D8DFE803F0083B413B5D
:103B600041414141414141414141410801680B68A6
:103B700023F480630B6003681969436A1970416A12
:103B80004B1C4362438D9BB2013B9BB24385036850
:103B90001B694B70436A01334362438D9BB2013B07
:103BA0009BB2438501684B6823F440734B6020232C
:103BB00080F83D3090F83E30DBB2402B15D000232A
:103BC00080F83E30082A17D0202A15D0122303632C
:103BD00014E001680B6843F480630B60CBE7016875
:103BE0000B6843F400730B60C5E7002380F83E3098
:103BF0000363FFF765FF90E700230363FFF775FD9D
:103C00008BE7704738B590F83D30DBB2222B00D0FF
:103C100038BD0446C56A438D9BB2032B15D9036892
:103C20001A69436A1A70436A01334362438D9BB237
:103C3000013B9BB24385438D9BB2032BE8D10268C5
:103C4000536823F480635360E2E7C26A022A01D01A
:103C5000012B05D92268536823F480635360D7E7AA
:103C6000FEF778FF002835D12268136823F48063BB
:103C700013602268536823F4E063536023681A6971
:103C8000636A1A70636A01336362638D9BB2013B9E
:103C90009BB26385202384F83D3094F83E30DBB23C
:103CA000402B09D0002384F83E30082D0CD0202D65
:103CB0000AD01223236309E0002384F83E302363F3
:103CC0002046FFF7FDFEA3E7002323632046FFF70E
:103CD0000CFD9DE72268536823F4E063536023687A
:103CE0001A69636A1A70636A01336362638D9BB2F7
:103CF000013B9BB26385202384F83D30002384F888
:103D00003E302046FFF77DFF82E7704700B583B065
:103D100000230193806B90F83D20D2B2324B1B6898
:103D2000DB083249A1FB03131B0A03EB8303C3EB3C
:103D3000C3030193019B43B1019B013B01930368C2
:103D40001B6813F4007FF5D103E0036C43F02003FC
:103D50000364436B0BB10021D963836B0BB100216A
:103D6000D96301680B6823F480630B6000234385EB
:103D7000436B0BB100211965836B0BB100211965F1
:103D800001680B6823F001030B6090F83D30DBB253
:103D9000602B0ED002F02802282A14D0202380F8AD
:103DA0003D30002380F83E30FFF72BFF03B05DF875
:103DB00004FB202380F83D30002380F83E3003646C
:103DC000FFF7A3FFF2E70268136843F001031360F3
:103DD0000268136843F4806313600023036328239D
:103DE00080F83D30E0E700BF5800002089B5F814A6
:103DF00010B5044690F83D30DBB290F83E20D2B2C8
:103E0000102A36D0402A34D003F02802282A38D08D
:103E10002268526812F4006F07D1602B05D020236E
:103E200084F83D30002384F83E3000232363236868
:103E30005A6812F4006F48D05A6822F400625A603F
:103E4000626B92F83530DBB2012B20D0444B136506
:103E5000606B01F003F8002849D02268136823F052
:103E600001031360202384F83D30606B036D984795
:103E70003DE0222BC8D121680A6822F400620A6062
:103E8000C2E700232363282384F83D30CFE7A36BE8
:103E9000334A1A65A06B00F0E1FF40B323685A690A
:103EA00012F0400F05D01A69636A1A70636A013311
:103EB00063622268136823F001031360202384F8EF
:103EC0003D30A06B036D984711E094F83D20D2B2CD
:103ED000602A1FD05A6912F0400F05D01A69636A30
:103EE0001A70636A013363622046FFF78AFE236C0F
:103EF00013F00F0F04D02268536823F4E06353607B
:103F000094F83D30DBB2226C12F0040F01D0282B64
:103F100018D010BD202284F83D20002222645A6966
:103F200012F0400F05D01A69636A1A70636A013390
:103F300063622268136823F0010313602046FFF7D1
:103F4000E4FED4E7074BE36200232363202284F8D6
:103F50003D2084F83E302046FFF744FCD9E700BFFF
:103F60000D3D00080000FFFF30B583B0044690F817
:103F70003D50EDB20268536823F4E06353600023C0
:103F8000019303685A6901921A6842F001021A60AB
:103F9000019B0268136823F48063136003685A6806
:103FA00012F4006F38D0222D21D02A2D1FD0426B61
:103FB0001268526892B24285428D92B21AB1026C76
:103FC00042F0040202645A6822F400625A60606B94
:103FD00001F046F801281FD0636B444A1A65606BF4
:103FE00000F03CFFC0B1606B036D984714E0A26B1A
:103FF0001268526892B26285628D92B21AB1226CD6
:1040000042F0040222645A6822F400625A60A06BF3
:1040100001F026F8012842D1638D9BB233B32368A7
:104020005A6912F0040F0AD01A69636A1A70636A37
:1040300001336362638D9BB2013B9BB2638523684E
:104040005A6912F0400F0AD01A69636A1A70636ADB
:1040500001336362638D9BB2013B9BB26385638DC9
:104060009BB21BB1236C43F004032364236C13BB8A
:104070002A2D25D094F83D30DBB2282B29D0236B94
:10408000222B01D0222D19D100232363202284F872
:104090003D2084F83E302046FFF74FFB0EE0A36B37
:1040A000124A1A65A06B00F0D9FE0028B4D0A06BAC
:1040B000036D9847B0E72046FFF79AFE03B030BD86
:1040C00000232363282384F83D302046FFF735FB87
:1040D000D0E7074BE36200232363202284F83D20CE
:1040E00084F83E302046FFF77DFBE7E70D3D0008F2
:1040F0000000FFFFF8B5044602685568C66A90F8EC
:104100003E30DBB290F83D10C8B2102B13D0402BDC
:1041100011D0236C002B7AD05369002113F0020FC9
:1041200078D015F4007F75D0236C03B191692046D7
:10413000FFF72BFBF8BDD2F818C0516911F0010749
:1041400005D1B6F52A0FF5D0B6F12A4FF2D017B146
:1041500015F4007F29D111F0080F02D015F4007F6B
:104160002AD111F0020F02D015F4007F28D11CF0E3
:10417000040F31D0526812F4006FDBD111F0800FC0
:1041800005D015F4806F02D011F0040F1CD011F08F
:10419000040FCFD015F4007FCCD0212818D0402BAD
:1041A000C8D12046FFF7C0FBC4E72046FEF70FFD4D
:1041B0002046FEF72DFBBDE72046FEF77DFBB9E765
:1041C0002046FEF78FFBB5E72046FFF70FFCB1E76F
:1041D0002046FFF75AFBADE7536813F4006FA9D1EF
:1041E00011F0400F05D015F4806F02D011F0040FCC
:1041F00009D011F0040F9DD015F4007F9AD020460D
:10420000FFF75FFC96E72046FFF7FCFC92E7916919
:10421000536983E713F0100F02D015F4007F18D113
:1042200021281AD0292818D013F0400F05D015F4F2
:10423000806F02D013F0040F28D013F0040F3FF466
:1042400079AF15F4007F3FF475AF2046FEF772FC9E
:1042500070E72046FFF788FE6CE713F0800F05D06B
:1042600015F4806F02D013F0040F0BD013F0040F7D
:104270003FF460AF15F4007F3FF45CAF2046FEF7DB
:1042800049FC57E72046FFF732FA53E72046FFF78D
:1042900055FA4FE7F8B5044603685D695F6890F822
:1042A0003E20D2B2C5F3002615F4807F08D0C7F3B4
:1042B000002617F4807F03D06FF4807159610126C6
:1042C00015F4007F08D017F4807F05D046F0020671
:1042D00023686FF40071596115F4806F19D017F4D9
:1042E000807F16D0638D99B294F83D30DBB2206B9D
:1042F000202A1BD023686FF48061596146F00406C0
:10430000102A01D0402A04D12268136843F40073B4
:10431000136015F4006F17D017F4807F14D046F0A7
:10432000080623686FF400625A610EE00029E1D1AB
:10433000212B05D0292B03D0282BDBD12128D9D143
:104340002046FFF751FAE4E72EB1236C3343236490
:104350002046FFF74DFDF8BD002800F09B8070B5AA
:104360000D4604464F4B1B6803F00F038B4208D2E7
:10437000CBB24C4A1370136803F00F038B4240F02A
:104380008B80236813F0020F17D013F0040F04D0B2
:10439000454A936843F4E0539360236813F0080F91
:1043A00004D0414A936843F4604393603E4A936863
:1043B00023F0F003A1680B439360236813F0010F0F
:1043C00032D06368012B21D09A1E012A25D9364AA2
:1043D000126812F0020F61D033498A6822F003029A
:1043E00013438B6000F008FF06462F4B9B6803F0D9
:1043F0000C036268B3EB820F16D000F0FDFE801B49
:1044000041F288339842F0D9032042E0264A1268EC
:1044100012F4003FE0D101203BE0234A126812F081
:10442000007FD9D1012034E01E4B1B6803F00F033D
:10443000AB4207D9EAB21B4B1A701B6803F00F039B
:10444000AB422DD1236813F0040F06D0164A9368AF
:1044500023F4E053E1680B439360236813F0080FE3
:1044600007D0114A936823F46043216943EAC103EA
:10447000936000F047F80C4B9B68C3F303130B4A9F
:10448000D35CD8400A4B18600A4B186800F068FEED
:10449000002070BD012070470120FAE70120F8E7F5
:1044A0000120F6E7003C024000380240885700082F
:1044B0005800002054000020014B1868704700BFCE
:1044C0005800002008B5FFF7F7FF044B9B68C3F3C3
:1044D0008223034AD35CD84008BD00BF00380240A5
:1044E0008057000808B5FFF7E7FF044B9B68C3F34C
:1044F0004233034AD35CD84008BD00BF00380240B5
:104500008057000808B5604B9B6803F00C03082B2C
:1045100006D00C2B5ED0042B40F0B4805B4833E017
:10452000594B5A6802F03F025B6813F4800F2CD09D
:10453000554B5868C0F388104FEA401CBCEB000C88
:104540006EEB0E0E4FEA8E1343EA9C634FEA8C111A
:10455000B1EB0C0163EB0E03DB0043EA5173C900BE
:1045600011EB000C43F10003590200234FEA4C20E9
:1045700041EADC51FDF778FA434B5B68C3F3014332
:1045800001335B00B0FBF3F008BD3F4B5868C0F34C
:1045900088104FEA401CBCEB000C6EEB0E0E4FEA8D
:1045A0008E1343EA9C634FEA8C11B1EB0C0163EB71
:1045B0000E03DB0043EA5173C90011EB000C43F119
:1045C0000003990200234FEA8C2041EA9C51FDF739
:1045D0004BFAD1E72C4B5A6802F03F025B6813F4A8
:1045E000800F2AD0284B5868C0F388104FEA401C2F
:1045F000BCEB000C6EEB0E0E4FEA8E1343EA9C638D
:104600004FEA8C11B1EB0C0163EB0E03DB0043EAC4
:104610005173C90011EB000C43F100035902002350
:104620004FEA4C2041EADC51FDF71EFA164B5B685D
:10463000C3F30273B0FBF3F0A6E7134B5868C0F363
:1046400088104FEA401CBCEB000C6EEB0E0E4FEADC
:104650008E1343EA9C634FEA8C11B1EB0C0163EBC0
:104660000E03DB0043EA5173C90011EB000C43F168
:104670000003990200234FEA8C2041EA9C51FDF788
:10468000F3F9D3E702487FE70038024000127A00CE
:104690000024F400002800F0018270B582B00446C6
:1046A000036813F0010F41D0994B9B6803F00C0392
:1046B000042B32D0964B9B6803F00C03082B27D0B9
:1046C000934B9B6803F00C030C2B59D06368B3F534
:1046D000803F5BD0B3F5A02F5ED08D4B1A6822F4DB
:1046E00080321A601A6822F480221A606368002BF4
:1046F0005CD000F081FD0546854B1B6813F4003F3C
:1047000014D100F079FD401B6428F5D90320CCE1D9
:104710007F4B5B6813F4800FD2D07D4B1B6813F482
:10472000003F03D06368002B00F0BA81236813F0C8
:10473000020F60D0764B9B6813F00C0F4AD0744B7D
:104740009B6803F00C03082B3FD0714B9B6803F070
:104750000C030C2B69D0E368002B75D06D4B012244
:104760001A6000F049FD0546694B1B6813F0020F03
:1047700061D100F041FD401B0228F5D9032094E1EE
:10478000634B5B6813F4800FA0D0C6E7604A1368E0
:1047900043F480331360A9E75D4B1A6842F480222A
:1047A0001A601A6842F480321A609FE700F024FD14
:1047B0000546574B1B6813F4003FB7D000F01CFDB3
:1047C000401B6428F5D903206FE1514B5B6813F45B
:1047D000800FBAD14E4B1B6813F0020F03D0E36871
:1047E000012B40F05F814A4A136823F0F8032169E6
:1047F00043EAC1031360236813F0080F49D06369CB
:10480000002B33D0434B0122C3F8802E00F0F4FC80
:1048100005463F4B5B6F13F0020F3AD100F0ECFC02
:10482000401B0228F5D903203FE1394B5B6813F4A4
:10483000800F90D1CEE7364A136823F0F803216940
:1048400043EAC1031360D6E7324B00221A6000F03E
:10485000D3FC05462E4B1B6813F0020FCBD000F0A3
:10486000CBFC401B0228F5D903201EE1294B002276
:10487000C3F8802E00F0C0FC0546254B5B6F13F09B
:10488000020F06D000F0B8FC401B0228F5D9032027
:104890000BE1236813F0040F76D01D4B1B6C13F053
:1048A000805F33D100230193194B1A6C42F0805280
:1048B0001A641B6C03F080530193019B0125164B76
:1048C0001B6813F4807F29D0A368012B3AD0052BF5
:1048D0003ED00F4B1A6F22F001021A671A6F22F0B6
:1048E00004021A67A368002B3CD000F085FC064642
:1048F000074B1B6F13F0020F45D100F07DFC801BAE
:1049000041F288339842F3D90320CEE00025D6E760
:104910000038024000004742007000406B4A1368B4
:1049200043F48073136000F067FC0646674B1B6816
:1049300013F4807FC8D100F05FFC801B0228F5D9FA
:104940000320B2E0624A136F43F001031367C9E723
:104950005F4B1A6F42F004021A671A6F42F00102AD
:104960001A67BFE700F048FC0646594B1B6F13F06F
:10497000020F08D000F040FC801B41F288339842BF
:10498000F3D9032091E0EDB9A369002B00F08C80EE
:104990004F4A926802F00C02082A54D0022B17D01A
:1049A0004C4B00221A6600F027FC0446484B1B685B
:1049B00013F0007F45D000F01FFC001B0228F5D942
:1049C000032072E0424A136C23F080531364DBE748
:1049D000404B00221A6600F00FFC05463C4B1B685A
:1049E00013F0007F06D000F007FC401B0228F5D929
:1049F00003205AE0E369226A1343626A43EA82139E
:104A0000A26A5208013A43EA0243E26A43EA0263B5
:104A1000226B43EA02732E4A53602E4B01221A6620
:104A200000F0EAFB04462A4B1B6813F0007F06D116
:104A300000F0E2FB001B0228F5D9032035E000203E
:104A400033E0002031E0012B31D0214B5B6803F4CF
:104A50008001E26991422CD103F03F02216A8A422F
:104A600029D1616A47F6C0721A40B2EB811F24D186
:104A700003F44031A26A5208013AB1EB024F1ED151
:104A800003F07062E16AB2EB016F1AD103F0E04308
:104A9000226BB3EB027F16D1002006E001207047A5
:104AA000012002E0012000E0002002B070BD0120E2
:104AB000FBE70120F9E70120F7E70120F5E70120F6
:104AC000F3E70120F1E70120EFE700BF00700040AD
:104AD000003802400000474200230F2B00F2E38021
:104AE00070B582B065E085684FEA430E032404FA8E
:104AF0000EF425EA0405CC6804FA0EF42C43846015
:104B0000446824EA02044A68C2F300129A4022432D
:104B100042605CE0DC08083450F8242003F007050C
:104B2000AD004FF00F0E0EFA05FE22EA0E0E0A69D6
:104B3000AA4042EA0E0240F824205CE0062200E08F
:104B4000002202FA0EF22A430234574D45F824207F
:104B5000564A94686FEA0C0224EA0C054E6816F473
:104B6000801F01D04CEA0405504CA560E46802EABD
:104B700004054E6816F4001F01D04CEA04054B4CA6
:104B8000E560646802EA04054E6816F4003F01D04F
:104B90004CEA0405454C6560246822404D6815F4D4
:104BA000803F01D04CEA0402404C226001330F2BBD
:104BB00077D801229A400C6804EA020C32EA040415
:104BC000F4D14C6804F00304013C012C8BD94A68F1
:104BD00002F00302032A09D0C4685D000322AA4040
:104BE00024EA02048A68AA402243C2604A6802F0AA
:104BF0000302022A8ED004684FEA430E032202FA0F
:104C00000EF224EA02044A6802F0030202FA0EF2EB
:104C1000224302604A6812F4403FC7D0002201924A
:104C2000234A546C44F480445464526C02F480422D
:104C30000192019A9C08A51C1B4A52F8255003F0CA
:104C4000030E4FEA8E0E0F2202FA0EF225EA02053B
:104C5000184A90423FF474AF02F58062904216D039
:104C600002F58062904214D002F58062904212D028
:104C700002F58062904210D002F5806290420ED020
:104C800002F5806290423FF459AF072259E70122B2
:104C900057E7022255E7032253E7042251E7052292
:104CA0004FE702B070BD704700380140003C014042
:104CB00000380240000002400AB1816170470904D7
:104CC0008161704710B40368D9B210390A4AA2FB57
:104CD00001421209094CA25CC2655F2907D96FF332
:104CE000090304338365806D5DF8044B70476FF3EF
:104CF00009038365F7E700BFABAAAAAA78570008A3
:104D0000836A826992B9012B0AD0022B02D00BB1BF
:104D100000207047C36A13F0807F28D100207047BD
:104D2000C36AB3F1C07F24D000207047B2F5005FA2
:104D300009D0022B25D9032B25D1C36A13F0807F1C
:104D400023D100207047032B03D8DFE803F01404BD
:104D5000140A00207047C36A13F0807F0DD1002031
:104D60007047C36AB3F1C07F09D0002070470120AB
:104D700070470120704701207047012070470120D3
:104D800070470120704700207047012070470000E5
:104D900070B5044600F030FA002C5BD005460223C3
:104DA00084F83530002384F834302268136823F007
:104DB0000103136023681A6812F0010F0AD000F093
:104DC0001BFA431B052BF5D920236365032084F8C8
:104DD000350070BD1A68204911406268A06802431E
:104DE000E06802432069024360690243A06902430C
:104DF000E0690243206A02430A43616A04291ED023
:104E00001A602668756925F00705636A1D43042B3F
:104E100007D1A36A1D43E36A1BB12046FFF770FF69
:104E200090B975612046FFF74DFFE26D3F23934037
:104E3000836000206065012384F83530C9E7E16AAA
:104E4000206B01430A43DBE740236365012084F8BC
:104E50003500BEE70120BCE73F8010F090F8353008
:104E6000DBB2022B03D0802343650120704705236A
:104E700080F835300268136823F0010313600020C6
:104E800070470000F0B583B0044600230193724BD5
:104E90001D68724BA3FB0535AD0A876D3E68C26D78
:104EA00008239340334210D003681A6812F0040FAD
:104EB0000BD01A6822F004021A60C26D08239340D6
:104EC000BB60436D43F001034365E26D01239340F2
:104ED000334209D02268526912F0800F04D0BB60BF
:104EE000636D43F002036365E26D04239340334234
:104EF00009D02268126812F0020F04D0BB60636D03
:104F000043F004036365E26D10239340334224D0E1
:104F10002268126812F0080F1FD0BB6023681A685D
:104F200012F4802F0DD01B6813F4002F04D1236CD2
:104F30009BB12046984710E0A36C73B12046984778
:104F40000BE01A6812F4807F03D11A6822F008027D
:104F50001A60236C0BB120469847E26D20239340E2
:104F6000334255D02268126812F0100F50D0BB6047
:104F700094F83530DBB2052B0ED023681A6812F492
:104F8000802F33D01B6813F4002F2AD1636C002BC1
:104F90003ED0204698473BE02268136823F0160372
:104FA00013602268536923F080035361236CA3B11B
:104FB0002268136823F008031360E26D3F239340D7
:104FC000BB60012384F83530002384F83430236D2E
:104FD000002B3FD0204698473CE0A36C002BE7D144
:104FE000EBE7E36BA3B12046984711E01A6812F48F
:104FF000807F09D11A6822F010021A60012384F818
:105000003530002384F83430E36B0BB120469847E9
:10501000636DFBB1636D13F0010F17D0052384F8A6
:1050200035302268136823F001031360019B0133BC
:105030000193AB4204D823681B6813F0010FF5D12C
:10504000012384F83530002384F83430E36C0BB14D
:105050002046984703B0F0BD58000020B5814E1B94
:1050600090F8350070470000002807DB00F01F02B1
:10507000400901239340024A42F82030704700BFA4
:1050800000E100E0002808DB0901C9B200F160403E
:1050900000F5614080F80013704700F00F0009012F
:1050A000C9B2014B1954704714ED00E000B500F08F
:1050B0000700C0F1070CBCF1040F28BF4FF0040C2F
:1050C000031D062B0FD9C31E4FF0FF3E0EFA0CF046
:1050D00021EA000199400EFA03FE22EA0E0241EA9B
:1050E00002005DF804FB0023EEE70000074AD368E6
:1050F00023F4E0631B041B0C000200F4E060034394
:1051000043F0BF6343F40033D360704700ED00E029
:1051100010B50446054BD868C0F30220FFF7C6FF60
:1051200001462046FFF7AEFF10BD00BF00ED00E0D6
:1051300008B5FFF799FF08BD0138B0F1807F0BD2A9
:105140004FF0E0235861054AF02182F82310002037
:10515000986107221A6170470120704700ED00E056
:1051600010B504460E4B1A784FF47A73B3FBF2F382
:105170000C4A1068B0FBF3F0FFF7DEFF68B90F2CA4
:1051800001D901200AE0002221464FF0FF30FFF74D
:10519000BFFF054B1C60002000E0012010BD00BFD8
:1051A00050000020580000205400002008B50B4B90
:1051B0001A6842F400721A601A6842F480621A6037
:1051C0001A6842F480721A600320FFF78FFF0020F4
:1051D000FFF7C6FFFDF720FA002008BD003C0240A3
:1051E000034A1168034B1B780B441360704700BFE0
:1051F0000804002050000020014B1868704700BFD1
:105200000804002038B50446FFF7F6FF0546B4F160
:10521000FF3F02D0044B1B781C44FFF7EDFF401BFF
:10522000A042FAD338BD00BF50000020026802F14E
:105230000C0353E8003F23F490730C3242E8003132
:105240000029F3D1026802F1140353E8003F23F070
:105250000103143242E800310029F3D1036B012B22
:1052600005D0202380F84230002303637047026892
:1052700002F10C0353E8003F23F010030C3242E824
:1052800000310029F3D1ECE710B504460268136938
:1052900023F44053C1680B431361836802691A43C6
:1052A00043691A43C3691A430168CB6823F4164360
:1052B00023F00C031343CB600268536923F440735B
:1052C00081690B4353610368314A934206D002F56A
:1052D0008062934202D0FFF7F5F801E0FFF702F990
:1052E000E369B3F5004F29D00021031849411B1889
:1052F00041F10001C90041EA5371DB0018186368ED
:105300004FEA83024FEA937341F10001FCF7ACFBD3
:10531000204AA2FB00314909642303FB11031B014E
:105320003233A2FB03235B0903F0F00202EB01120C
:1053300003F00F03216813448B6010BD0023021893
:1053400043EB0301121841F10001C90041EA527117
:10535000D200101841F10001626892185B41FCF71D
:1053600083FB0C4AA2FB00314909642303FB1103B0
:10537000DB003233A2FB03235B095A0002F4F8720C
:1053800002EB011203F00703216813448B60D4E79A
:10539000001001401F85EB512DE9F04383B0054615
:1053A0000E4617469946DDF828802B681C6836EAB9
:1053B00004040CBF01240024BC4228D1B8F1FF3FF3
:1053C000F3D0FFF719FFA0EB0900404523D8B8F14F
:1053D000000F22D02B68DA6812F0040FE5D0802E7F
:1053E000E3D0402EE1D01A6812F0080FDDD000247F
:1053F00001941A6801925B680193019B2846FFF7AC
:1054000015FF08236B6485F84040012000E0002070
:1054100003B0BDE8F0830320FAE70320F8E760B3A8
:1054200010B5044690F8413013B3242384F841307A
:105430002268D36823F40053D3602046FFF724FF8B
:105440002268136923F4904313612268536923F09F
:105450002A0353612268D36843F40053D3600020C9
:105460006064202384F8413084F84230606310BDCA
:1054700080F84030FDF78CF9D7E7012070472DE91F
:10548000F04182B01E4690F84130DBB2202B56D15D
:1054900004460D469046002955D00AB901204FE038
:1054A00000234364212380F84130FFF7A5FE07461F
:1054B000A4F82480A4F82680A368B3F5805F02D006
:1054C0004FF0000814E023692BB34FF000080FE001
:1054D000202384F84130032032E038F8023B226870
:1054E000C3F308035360E28C92B2013A92B2E284B1
:1054F000E38C9BB293B100963B460022802120466C
:10550000FFF74AFF0028E3D1002DE6D015F8012B64
:1055100023685A60E7E7A8460025E9E700963B467E
:10552000002240212046FFF737FF18B9202384F8D6
:10553000413005E0202384F84130032000E00220C0
:1055400002B0BDE8F0810120FAE70000034AD2F87A
:10555000883043F47003C2F88830704700ED00E0F3
:1055600010B503460C4A0D490D48006840B10C487F
:1055700000680344521A934206D8094A136010BDCA
:105580000748084C0460F2E7FBF7B8F90C23036006
:105590004FF0FF30F3E700BF0000022000040000DE
:1055A0000C04002010040020DFF834D0FFF7CEFFF9
:1055B0000C480D490D4A002302E0D458C45004336E
:1055C000C4188C42F9D30A4A0A4C002301E0136044
:1055D0000432A242FBD3FBF797F8FCF7BDFC7047FF
:1055E00000000220000000205C000020A8570008F6
:1055F0005C00002010040020FEE70000F8B500BFAA
:10560000F8BC08BC9E467047F8B500BFF8BC08BCA3
:045610009E467047FB
:10561400424E4F30353520496E697469616C697A40
:10562400696E672E2E2E0D0A00000000424E4F3088
:10563400353520496E697469616C697A6174696F82
:105644006E204F4B210D0A00424E4F303535204914
:105654006E697469616C697A6174696F6E20464120
:10566400494C4544210D0A000D0A3D3D3D20424E62
:105674004F3035352044617461203D3D3D0D0A00B5
:1056840043616C69623A205379733D2564204779FC
:10569400726F3D256420416363656C3D2564204D34
:1056A40061673D25640D0A0045756C6572202D20E7
:1056B400483A252E326620523A252E326620503A38
:1056C400252E32660D0A0000416363656C202D208F
:1056D400583A252E326620593A252E3266205A3AF7
:1056E400252E3266206D2F73320D0A004779726FB2
:1056F40020202D20583A252E326620593A252E3264
:1057040066205A3A252E3266206465672F730D0A87
:10571400000000004D61672020202D20583A252EDE
:10572400326620593A252E3266205A3A252E3266A0
:105734002075540D0A000000232D302B200000009A
:10574400686C4C006566674546470000303132336B
:105754003435363738394142434445460000000069
:1057640030313233343536373839616263646566D3
:1057740000000000000610160006101600000000CD
:105784000102030400000000000000000102030401
:0457940006070809F3
:08579800E8AFFF7F01000000F3
:0457A0006902000892
:0457A40041020008B6
:1057A800040000200000000080000020E800002025
:1057B8005001002000000000000000000000000070
:1057C80000000000000000000000000000000000D1
:1057D80000000000000000000000000000000000C1
:1057E80000000000000000000000000000000000B1
:0C57F80001000000100000000024F4007C
:04000005080055A9F1
:00000001FF
